{
  "_format": "hh-sol-artifact-1",
  "contractName": "OgreTown",
  "sourceName": "contracts/ogretown.sol",
  "abi": [
    {
      "inputs": [
        {
          "internalType": "uint256",
          "name": "_mintLimit",
          "type": "uint256"
        },
        {
          "internalType": "uint256",
          "name": "_reserved_supply",
          "type": "uint256"
        }
      ],
      "stateMutability": "nonpayable",
      "type": "constructor"
    },
    {
      "inputs": [],
      "name": "ApprovalCallerNotOwnerNorApproved",
      "type": "error"
    },
    {
      "inputs": [],
      "name": "ApprovalQueryForNonexistentToken",
      "type": "error"
    },
    {
      "inputs": [],
      "name": "ApprovalToCurrentOwner",
      "type": "error"
    },
    {
      "inputs": [],
      "name": "ApproveToCaller",
      "type": "error"
    },
    {
      "inputs": [],
      "name": "BalanceQueryForZeroAddress",
      "type": "error"
    },
    {
      "inputs": [],
      "name": "MintToZeroAddress",
      "type": "error"
    },
    {
      "inputs": [],
      "name": "MintZeroQuantity",
      "type": "error"
    },
    {
      "inputs": [],
      "name": "OwnerQueryForNonexistentToken",
      "type": "error"
    },
    {
      "inputs": [],
      "name": "TransferCallerNotOwnerNorApproved",
      "type": "error"
    },
    {
      "inputs": [],
      "name": "TransferFromIncorrectOwner",
      "type": "error"
    },
    {
      "inputs": [],
      "name": "TransferToNonERC721ReceiverImplementer",
      "type": "error"
    },
    {
      "inputs": [],
      "name": "TransferToZeroAddress",
      "type": "error"
    },
    {
      "inputs": [],
      "name": "URIQueryForNonexistentToken",
      "type": "error"
    },
    {
      "anonymous": false,
      "inputs": [
        {
          "indexed": true,
          "internalType": "address",
          "name": "owner",
          "type": "address"
        },
        {
          "indexed": true,
          "internalType": "address",
          "name": "approved",
          "type": "address"
        },
        {
          "indexed": true,
          "internalType": "uint256",
          "name": "tokenId",
          "type": "uint256"
        }
      ],
      "name": "Approval",
      "type": "event"
    },
    {
      "anonymous": false,
      "inputs": [
        {
          "indexed": true,
          "internalType": "address",
          "name": "owner",
          "type": "address"
        },
        {
          "indexed": true,
          "internalType": "address",
          "name": "operator",
          "type": "address"
        },
        {
          "indexed": false,
          "internalType": "bool",
          "name": "approved",
          "type": "bool"
        }
      ],
      "name": "ApprovalForAll",
      "type": "event"
    },
    {
      "anonymous": false,
      "inputs": [
        {
          "indexed": true,
          "internalType": "address",
          "name": "previousOwner",
          "type": "address"
        },
        {
          "indexed": true,
          "internalType": "address",
          "name": "newOwner",
          "type": "address"
        }
      ],
      "name": "OwnershipTransferred",
      "type": "event"
    },
    {
      "anonymous": false,
      "inputs": [
        {
          "indexed": true,
          "internalType": "address",
          "name": "from",
          "type": "address"
        },
        {
          "indexed": true,
          "internalType": "address",
          "name": "to",
          "type": "address"
        },
        {
          "indexed": true,
          "internalType": "uint256",
          "name": "tokenId",
          "type": "uint256"
        }
      ],
      "name": "Transfer",
      "type": "event"
    },
    {
      "stateMutability": "payable",
      "type": "fallback"
    },
    {
      "inputs": [],
      "name": "MAX_SUPPLY",
      "outputs": [
        {
          "internalType": "uint256",
          "name": "",
          "type": "uint256"
        }
      ],
      "stateMutability": "view",
      "type": "function"
    },
    {
      "inputs": [],
      "name": "RESERVED_MINTED",
      "outputs": [
        {
          "internalType": "uint256",
          "name": "",
          "type": "uint256"
        }
      ],
      "stateMutability": "view",
      "type": "function"
    },
    {
      "inputs": [],
      "name": "RESERVED_SUPPLY",
      "outputs": [
        {
          "internalType": "uint256",
          "name": "",
          "type": "uint256"
        }
      ],
      "stateMutability": "view",
      "type": "function"
    },
    {
      "inputs": [
        {
          "internalType": "address",
          "name": "to",
          "type": "address"
        },
        {
          "internalType": "uint256",
          "name": "tokenId",
          "type": "uint256"
        }
      ],
      "name": "approve",
      "outputs": [],
      "stateMutability": "nonpayable",
      "type": "function"
    },
    {
      "inputs": [
        {
          "internalType": "address",
          "name": "owner",
          "type": "address"
        }
      ],
      "name": "balanceOf",
      "outputs": [
        {
          "internalType": "uint256",
          "name": "",
          "type": "uint256"
        }
      ],
      "stateMutability": "view",
      "type": "function"
    },
    {
      "inputs": [],
      "name": "baseURI",
      "outputs": [
        {
          "internalType": "string",
          "name": "",
          "type": "string"
        }
      ],
      "stateMutability": "view",
      "type": "function"
    },
    {
      "inputs": [
        {
          "internalType": "uint256",
          "name": "tokenId",
          "type": "uint256"
        }
      ],
      "name": "getApproved",
      "outputs": [
        {
          "internalType": "address",
          "name": "",
          "type": "address"
        }
      ],
      "stateMutability": "view",
      "type": "function"
    },
    {
      "inputs": [
        {
          "internalType": "address",
          "name": "owner",
          "type": "address"
        },
        {
          "internalType": "address",
          "name": "operator",
          "type": "address"
        }
      ],
      "name": "isApprovedForAll",
      "outputs": [
        {
          "internalType": "bool",
          "name": "",
          "type": "bool"
        }
      ],
      "stateMutability": "view",
      "type": "function"
    },
    {
      "inputs": [],
      "name": "isRevealed",
      "outputs": [
        {
          "internalType": "bool",
          "name": "",
          "type": "bool"
        }
      ],
      "stateMutability": "view",
      "type": "function"
    },
    {
      "inputs": [],
      "name": "mintLimit",
      "outputs": [
        {
          "internalType": "uint256",
          "name": "",
          "type": "uint256"
        }
      ],
      "stateMutability": "view",
      "type": "function"
    },
    {
      "inputs": [
        {
          "internalType": "uint256",
          "name": "quantity",
          "type": "uint256"
        }
      ],
      "name": "mintOgre",
      "outputs": [],
      "stateMutability": "nonpayable",
      "type": "function"
    },
    {
      "inputs": [],
      "name": "mintPrice",
      "outputs": [
        {
          "internalType": "uint256",
          "name": "",
          "type": "uint256"
        }
      ],
      "stateMutability": "view",
      "type": "function"
    },
    {
      "inputs": [
        {
          "internalType": "address",
          "name": "",
          "type": "address"
        }
      ],
      "name": "minters",
      "outputs": [
        {
          "internalType": "uint256",
          "name": "",
          "type": "uint256"
        }
      ],
      "stateMutability": "view",
      "type": "function"
    },
    {
      "inputs": [],
      "name": "name",
      "outputs": [
        {
          "internalType": "string",
          "name": "",
          "type": "string"
        }
      ],
      "stateMutability": "view",
      "type": "function"
    },
    {
      "inputs": [],
      "name": "owner",
      "outputs": [
        {
          "internalType": "address",
          "name": "",
          "type": "address"
        }
      ],
      "stateMutability": "view",
      "type": "function"
    },
    {
      "inputs": [
        {
          "internalType": "uint256",
          "name": "tokenId",
          "type": "uint256"
        }
      ],
      "name": "ownerOf",
      "outputs": [
        {
          "internalType": "address",
          "name": "",
          "type": "address"
        }
      ],
      "stateMutability": "view",
      "type": "function"
    },
    {
      "inputs": [],
      "name": "placeholderURI",
      "outputs": [
        {
          "internalType": "string",
          "name": "",
          "type": "string"
        }
      ],
      "stateMutability": "view",
      "type": "function"
    },
    {
      "inputs": [],
      "name": "provenanceHash",
      "outputs": [
        {
          "internalType": "string",
          "name": "",
          "type": "string"
        }
      ],
      "stateMutability": "view",
      "type": "function"
    },
    {
      "inputs": [],
      "name": "publicSale",
      "outputs": [
        {
          "internalType": "bool",
          "name": "",
          "type": "bool"
        }
      ],
      "stateMutability": "view",
      "type": "function"
    },
    {
      "inputs": [],
      "name": "renounceOwnership",
      "outputs": [],
      "stateMutability": "nonpayable",
      "type": "function"
    },
    {
      "inputs": [
        {
          "internalType": "uint256",
          "name": "quantity",
          "type": "uint256"
        }
      ],
      "name": "reserveForTeam",
      "outputs": [],
      "stateMutability": "nonpayable",
      "type": "function"
    },
    {
      "inputs": [
        {
          "internalType": "address",
          "name": "from",
          "type": "address"
        },
        {
          "internalType": "address",
          "name": "to",
          "type": "address"
        },
        {
          "internalType": "uint256",
          "name": "tokenId",
          "type": "uint256"
        }
      ],
      "name": "safeTransferFrom",
      "outputs": [],
      "stateMutability": "nonpayable",
      "type": "function"
    },
    {
      "inputs": [
        {
          "internalType": "address",
          "name": "from",
          "type": "address"
        },
        {
          "internalType": "address",
          "name": "to",
          "type": "address"
        },
        {
          "internalType": "uint256",
          "name": "tokenId",
          "type": "uint256"
        },
        {
          "internalType": "bytes",
          "name": "_data",
          "type": "bytes"
        }
      ],
      "name": "safeTransferFrom",
      "outputs": [],
      "stateMutability": "nonpayable",
      "type": "function"
    },
    {
      "inputs": [
        {
          "internalType": "address",
          "name": "operator",
          "type": "address"
        },
        {
          "internalType": "bool",
          "name": "approved",
          "type": "bool"
        }
      ],
      "name": "setApprovalForAll",
      "outputs": [],
      "stateMutability": "nonpayable",
      "type": "function"
    },
    {
      "inputs": [
        {
          "internalType": "string",
          "name": "_baseURI",
          "type": "string"
        }
      ],
      "name": "setBaseURI",
      "outputs": [],
      "stateMutability": "nonpayable",
      "type": "function"
    },
    {
      "inputs": [
        {
          "internalType": "string",
          "name": "_placeholderURI",
          "type": "string"
        }
      ],
      "name": "setPlaceholderURI",
      "outputs": [],
      "stateMutability": "nonpayable",
      "type": "function"
    },
    {
      "inputs": [
        {
          "internalType": "string",
          "name": "_provenanceHash",
          "type": "string"
        }
      ],
      "name": "setProvenanceHash",
      "outputs": [],
      "stateMutability": "nonpayable",
      "type": "function"
    },
    {
      "inputs": [
        {
          "internalType": "bool",
          "name": "_isRevealed",
          "type": "bool"
        }
      ],
      "name": "setRevealNft",
      "outputs": [],
      "stateMutability": "nonpayable",
      "type": "function"
    },
    {
      "inputs": [
        {
          "internalType": "bool",
          "name": "_publicSale",
          "type": "bool"
        }
      ],
      "name": "setpublicSale",
      "outputs": [],
      "stateMutability": "nonpayable",
      "type": "function"
    },
    {
      "inputs": [
        {
          "internalType": "bytes4",
          "name": "interfaceId",
          "type": "bytes4"
        }
      ],
      "name": "supportsInterface",
      "outputs": [
        {
          "internalType": "bool",
          "name": "",
          "type": "bool"
        }
      ],
      "stateMutability": "view",
      "type": "function"
    },
    {
      "inputs": [],
      "name": "symbol",
      "outputs": [
        {
          "internalType": "string",
          "name": "",
          "type": "string"
        }
      ],
      "stateMutability": "view",
      "type": "function"
    },
    {
      "inputs": [],
      "name": "tokenCounter",
      "outputs": [
        {
          "internalType": "uint256",
          "name": "",
          "type": "uint256"
        }
      ],
      "stateMutability": "view",
      "type": "function"
    },
    {
      "inputs": [
        {
          "internalType": "uint256",
          "name": "tokenId",
          "type": "uint256"
        }
      ],
      "name": "tokenURI",
      "outputs": [
        {
          "internalType": "string",
          "name": "",
          "type": "string"
        }
      ],
      "stateMutability": "view",
      "type": "function"
    },
    {
      "inputs": [],
      "name": "totalSupply",
      "outputs": [
        {
          "internalType": "uint256",
          "name": "",
          "type": "uint256"
        }
      ],
      "stateMutability": "view",
      "type": "function"
    },
    {
      "inputs": [
        {
          "internalType": "address",
          "name": "from",
          "type": "address"
        },
        {
          "internalType": "address",
          "name": "to",
          "type": "address"
        },
        {
          "internalType": "uint256",
          "name": "tokenId",
          "type": "uint256"
        }
      ],
      "name": "transferFrom",
      "outputs": [],
      "stateMutability": "nonpayable",
      "type": "function"
    },
    {
      "inputs": [
        {
          "internalType": "address",
          "name": "newOwner",
          "type": "address"
        }
      ],
      "name": "transferOwnership",
      "outputs": [],
      "stateMutability": "nonpayable",
      "type": "function"
    },
    {
      "inputs": [],
      "name": "withdraw",
      "outputs": [],
      "stateMutability": "payable",
      "type": "function"
    },
    {
      "stateMutability": "payable",
      "type": "receive"
    }
  ],
  "bytecode": "0x60a06040526000600a55604051806020016040528060008152506010908051906020019062000030929190620002fa565b506000601160006101000a81548160ff02191690831515021790555060006012553480156200005e57600080fd5b50604051620040c2380380620040c28339818101604052810190620000849190620003ea565b6040518060400160405280600881526020017f4f677265546f776e0000000000000000000000000000000000000000000000008152506040518060400160405280600481526020017f4f47524500000000000000000000000000000000000000000000000000000000815250816002908051906020019062000108929190620002fa565b50806003908051906020019062000121929190620002fa565b50620001326200022360201b60201c565b60008190555050506200015a6200014e6200022c60201b60201c565b6200023460201b60201c565b6001600981905550600061271011620001aa576040517f08c379a0000000000000000000000000000000000000000000000000000000008152600401620001a190620004b8565b60405180910390fd5b6127108110620001f1576040517f08c379a0000000000000000000000000000000000000000000000000000000008152600401620001e8906200052a565b60405180910390fd5b81600b819055506000600f60006101000a81548160ff02191690831515021790555080608081815250505050620005b1565b60006001905090565b600033905090565b6000600860009054906101000a900473ffffffffffffffffffffffffffffffffffffffff16905081600860006101000a81548173ffffffffffffffffffffffffffffffffffffffff021916908373ffffffffffffffffffffffffffffffffffffffff1602179055508173ffffffffffffffffffffffffffffffffffffffff168173ffffffffffffffffffffffffffffffffffffffff167f8be0079c531659141344cd1fd0a4f28419497f9722a3daafe3b4186f6b6457e060405160405180910390a35050565b82805462000308906200057b565b90600052602060002090601f0160209004810192826200032c576000855562000378565b82601f106200034757805160ff191683800117855562000378565b8280016001018555821562000378579182015b82811115620003775782518255916020019190600101906200035a565b5b5090506200038791906200038b565b5090565b5b80821115620003a65760008160009055506001016200038c565b5090565b600080fd5b6000819050919050565b620003c481620003af565b8114620003d057600080fd5b50565b600081519050620003e481620003b9565b92915050565b60008060408385031215620004045762000403620003aa565b5b60006200041485828601620003d3565b92505060206200042785828601620003d3565b9150509250929050565b600082825260208201905092915050565b7f746865206d61784e667456616c75652063616e6e6f74206265206c657373207460008201527f68616e2031200000000000000000000000000000000000000000000000000000602082015250565b6000620004a060268362000431565b9150620004ad8262000442565b604082019050919050565b60006020820190508181036000830152620004d38162000491565b9050919050565b7f796f752063616e6e6f7420726573657276656420616c6c206e66740000000000600082015250565b600062000512601b8362000431565b91506200051f82620004da565b602082019050919050565b60006020820190508181036000830152620005458162000503565b9050919050565b7f4e487b7100000000000000000000000000000000000000000000000000000000600052602260045260246000fd5b600060028204905060018216806200059457607f821691505b60208210811415620005ab57620005aa6200054c565b5b50919050565b608051613aee620005d460003960008181610ce401526118700152613aee6000f3fe60806040526004361061021e5760003560e01c80636c0360eb11610123578063c6ab67a3116100ab578063e985e9c51161006f578063e985e9c514610796578063f15f35e5146107d3578063f2fde38b146107fc578063f46eccc414610825578063f921d83f1461086257610225565b8063c6ab67a3146106b1578063c87b56dd146106dc578063ccaf1a8214610719578063d082e38114610742578063dfc9d87a1461076d57610225565b80638da5cb5b116100f25780638da5cb5b146105de57806395d89b4114610609578063996517cf14610634578063a22cb4651461065f578063b88d4fde1461068857610225565b80636c0360eb1461053457806370a082311461055f578063715018a61461059c5780637313cba9146105b357610225565b806333bc1c5c116101a657806354214f691161017557806354214f691461044f57806355f804b31461047a5780635c22abd2146104a35780636352211e146104cc5780636817c76c1461050957610225565b806333bc1c5c146103c85780633574a2dd146103f35780633ccfd60b1461041c57806342842e0e1461042657610225565b806310969523116101ed57806310969523146102f557806318160ddd1461031e57806323b872dd1461034957806331a53e9a1461037257806332cb6b0c1461039d57610225565b806301ffc9a71461022757806306fdde0314610264578063081812fc1461028f578063095ea7b3146102cc57610225565b3661022557005b005b34801561023357600080fd5b5061024e60048036038101906102499190612ae5565b61088d565b60405161025b9190612b2d565b60405180910390f35b34801561027057600080fd5b5061027961091f565b6040516102869190612be1565b60405180910390f35b34801561029b57600080fd5b506102b660048036038101906102b19190612c39565b6109b1565b6040516102c39190612ca7565b60405180910390f35b3480156102d857600080fd5b506102f360048036038101906102ee9190612cee565b610a2d565b005b34801561030157600080fd5b5061031c60048036038101906103179190612e63565b610bd4565b005b34801561032a57600080fd5b50610333610cbb565b6040516103409190612ebb565b60405180910390f35b34801561035557600080fd5b50610370600480360381019061036b9190612ed6565b610cd2565b005b34801561037e57600080fd5b50610387610ce2565b6040516103949190612ebb565b60405180910390f35b3480156103a957600080fd5b506103b2610d06565b6040516103bf9190612ebb565b60405180910390f35b3480156103d457600080fd5b506103dd610d0c565b6040516103ea9190612b2d565b60405180910390f35b3480156103ff57600080fd5b5061041a60048036038101906104159190612e63565b610d1f565b005b610424610df9565b005b34801561043257600080fd5b5061044d60048036038101906104489190612ed6565b610ebe565b005b34801561045b57600080fd5b50610464610ede565b6040516104719190612b2d565b60405180910390f35b34801561048657600080fd5b506104a1600480360381019061049c9190612e63565b610ef1565b005b3480156104af57600080fd5b506104ca60048036038101906104c59190612f55565b610fcb565b005b3480156104d857600080fd5b506104f360048036038101906104ee9190612c39565b611064565b6040516105009190612ca7565b60405180910390f35b34801561051557600080fd5b5061051e611076565b60405161052b9190612ebb565b60405180910390f35b34801561054057600080fd5b5061054961107c565b6040516105569190612be1565b60405180910390f35b34801561056b57600080fd5b5061058660048036038101906105819190612f82565b61110a565b6040516105939190612ebb565b60405180910390f35b3480156105a857600080fd5b506105b16111c3565b005b3480156105bf57600080fd5b506105c861124b565b6040516105d59190612be1565b60405180910390f35b3480156105ea57600080fd5b506105f36112d9565b6040516106009190612ca7565b60405180910390f35b34801561061557600080fd5b5061061e611303565b60405161062b9190612be1565b60405180910390f35b34801561064057600080fd5b50610649611395565b6040516106569190612ebb565b60405180910390f35b34801561066b57600080fd5b5061068660048036038101906106819190612faf565b61139b565b005b34801561069457600080fd5b506106af60048036038101906106aa9190613090565b611513565b005b3480156106bd57600080fd5b506106c6611586565b6040516106d39190612be1565b60405180910390f35b3480156106e857600080fd5b5061070360048036038101906106fe9190612c39565b611614565b6040516107109190612be1565b60405180910390f35b34801561072557600080fd5b50610740600480360381019061073b9190612c39565b6117f2565b005b34801561074e57600080fd5b50610757611a02565b6040516107649190612ebb565b60405180910390f35b34801561077957600080fd5b50610794600480360381019061078f9190612f55565b611a08565b005b3480156107a257600080fd5b506107bd60048036038101906107b89190613113565b611aa1565b6040516107ca9190612b2d565b60405180910390f35b3480156107df57600080fd5b506107fa60048036038101906107f59190612c39565b611b35565b005b34801561080857600080fd5b50610823600480360381019061081e9190612f82565b611d56565b005b34801561083157600080fd5b5061084c60048036038101906108479190612f82565b611e4e565b6040516108599190612ebb565b60405180910390f35b34801561086e57600080fd5b50610877611e66565b6040516108849190612ebb565b60405180910390f35b60006301ffc9a760e01b827bffffffffffffffffffffffffffffffffffffffffffffffffffffffff191614806108e857506380ac58cd60e01b827bffffffffffffffffffffffffffffffffffffffffffffffffffffffff1916145b806109185750635b5e139f60e01b827bffffffffffffffffffffffffffffffffffffffffffffffffffffffff1916145b9050919050565b60606002805461092e90613182565b80601f016020809104026020016040519081016040528092919081815260200182805461095a90613182565b80156109a75780601f1061097c576101008083540402835291602001916109a7565b820191906000526020600020905b81548152906001019060200180831161098a57829003601f168201915b5050505050905090565b60006109bc82611e6c565b6109f2576040517fcf4700e400000000000000000000000000000000000000000000000000000000815260040160405180910390fd5b6006600083815260200190815260200160002060009054906101000a900473ffffffffffffffffffffffffffffffffffffffff169050919050565b6000610a3882611ecb565b90508073ffffffffffffffffffffffffffffffffffffffff168373ffffffffffffffffffffffffffffffffffffffff161415610aa0576040517f943f7b8c00000000000000000000000000000000000000000000000000000000815260040160405180910390fd5b8073ffffffffffffffffffffffffffffffffffffffff16610abf611f99565b73ffffffffffffffffffffffffffffffffffffffff1614610b2257610aeb81610ae6611f99565b611aa1565b610b21576040517fcfb3b94200000000000000000000000000000000000000000000000000000000815260040160405180910390fd5b5b826006600084815260200190815260200160002060006101000a81548173ffffffffffffffffffffffffffffffffffffffff021916908373ffffffffffffffffffffffffffffffffffffffff160217905550818373ffffffffffffffffffffffffffffffffffffffff168273ffffffffffffffffffffffffffffffffffffffff167f8c5be1e5ebec7d5bd14f71427d1e84f3dd0314c0f7b2291e5b200ac8c7c3b92560405160405180910390a4505050565b610bdc611fa1565b73ffffffffffffffffffffffffffffffffffffffff16610bfa6112d9565b73ffffffffffffffffffffffffffffffffffffffff1614610c50576040517f08c379a0000000000000000000000000000000000000000000000000000000008152600401610c4790613200565b60405180910390fd5b600060108054610c5f90613182565b905014610ca1576040517f08c379a0000000000000000000000000000000000000000000000000000000008152600401610c9890613292565b60405180910390fd5b8060109080519060200190610cb79291906129d6565b5050565b6000610cc5611fa9565b6001546000540303905090565b610cdd838383611fb2565b505050565b7f000000000000000000000000000000000000000000000000000000000000000081565b61271081565b600f60009054906101000a900460ff1681565b610d27611fa1565b73ffffffffffffffffffffffffffffffffffffffff16610d456112d9565b73ffffffffffffffffffffffffffffffffffffffff1614610d9b576040517f08c379a0000000000000000000000000000000000000000000000000000000008152600401610d9290613200565b60405180910390fd5b6000815111610ddf576040517f08c379a0000000000000000000000000000000000000000000000000000000008152600401610dd6906132fe565b60405180910390fd5b8060139080519060200190610df59291906129d6565b5050565b610e01611fa1565b73ffffffffffffffffffffffffffffffffffffffff16610e1f6112d9565b73ffffffffffffffffffffffffffffffffffffffff1614610e75576040517f08c379a0000000000000000000000000000000000000000000000000000000008152600401610e6c90613200565b60405180910390fd5b3373ffffffffffffffffffffffffffffffffffffffff166108fc479081150290604051600060405180830381858888f19350505050158015610ebb573d6000803e3d6000fd5b50565b610ed983838360405180602001604052806000815250611513565b505050565b601160009054906101000a900460ff1681565b610ef9611fa1565b73ffffffffffffffffffffffffffffffffffffffff16610f176112d9565b73ffffffffffffffffffffffffffffffffffffffff1614610f6d576040517f08c379a0000000000000000000000000000000000000000000000000000000008152600401610f6490613200565b60405180910390fd5b6000815111610fb1576040517f08c379a0000000000000000000000000000000000000000000000000000000008152600401610fa89061336a565b60405180910390fd5b80600e9080519060200190610fc79291906129d6565b5050565b610fd3611fa1565b73ffffffffffffffffffffffffffffffffffffffff16610ff16112d9565b73ffffffffffffffffffffffffffffffffffffffff1614611047576040517f08c379a000000000000000000000000000000000000000000000000000000000815260040161103e90613200565b60405180910390fd5b80600f60006101000a81548160ff02191690831515021790555050565b600061106f82611ecb565b9050919050565b600a5481565b600e805461108990613182565b80601f01602080910402602001604051908101604052809291908181526020018280546110b590613182565b80156111025780601f106110d757610100808354040283529160200191611102565b820191906000526020600020905b8154815290600101906020018083116110e557829003601f168201915b505050505081565b60008073ffffffffffffffffffffffffffffffffffffffff168273ffffffffffffffffffffffffffffffffffffffff161415611172576040517f8f4eb60400000000000000000000000000000000000000000000000000000000815260040160405180910390fd5b67ffffffffffffffff600560008473ffffffffffffffffffffffffffffffffffffffff1673ffffffffffffffffffffffffffffffffffffffff16815260200190815260200160002054169050919050565b6111cb611fa1565b73ffffffffffffffffffffffffffffffffffffffff166111e96112d9565b73ffffffffffffffffffffffffffffffffffffffff161461123f576040517f08c379a000000000000000000000000000000000000000000000000000000000815260040161123690613200565b60405180910390fd5b611249600061235c565b565b6013805461125890613182565b80601f016020809104026020016040519081016040528092919081815260200182805461128490613182565b80156112d15780601f106112a6576101008083540402835291602001916112d1565b820191906000526020600020905b8154815290600101906020018083116112b457829003601f168201915b505050505081565b6000600860009054906101000a900473ffffffffffffffffffffffffffffffffffffffff16905090565b60606003805461131290613182565b80601f016020809104026020016040519081016040528092919081815260200182805461133e90613182565b801561138b5780601f106113605761010080835404028352916020019161138b565b820191906000526020600020905b81548152906001019060200180831161136e57829003601f168201915b5050505050905090565b600b5481565b6113a3611f99565b73ffffffffffffffffffffffffffffffffffffffff168273ffffffffffffffffffffffffffffffffffffffff161415611408576040517fb06307db00000000000000000000000000000000000000000000000000000000815260040160405180910390fd5b8060076000611415611f99565b73ffffffffffffffffffffffffffffffffffffffff1673ffffffffffffffffffffffffffffffffffffffff16815260200190815260200160002060008473ffffffffffffffffffffffffffffffffffffffff1673ffffffffffffffffffffffffffffffffffffffff16815260200190815260200160002060006101000a81548160ff0219169083151502179055508173ffffffffffffffffffffffffffffffffffffffff166114c2611f99565b73ffffffffffffffffffffffffffffffffffffffff167f17307eab39ab6107e8899845ad3d59bd9653f200f220920489ca2b5937696c31836040516115079190612b2d565b60405180910390a35050565b61151e848484611fb2565b60008373ffffffffffffffffffffffffffffffffffffffff163b146115805761154984848484612422565b61157f576040517fd1a57ed600000000000000000000000000000000000000000000000000000000815260040160405180910390fd5b5b50505050565b6010805461159390613182565b80601f01602080910402602001604051908101604052809291908181526020018280546115bf90613182565b801561160c5780601f106115e15761010080835404028352916020019161160c565b820191906000526020600020905b8154815290600101906020018083116115ef57829003601f168201915b505050505081565b606061161f82611e6c565b61165e576040517f08c379a0000000000000000000000000000000000000000000000000000000008152600401611655906133fc565b60405180910390fd5b601160009054906101000a900460ff16611704576013805461167f90613182565b80601f01602080910402602001604051908101604052809291908181526020018280546116ab90613182565b80156116f85780601f106116cd576101008083540402835291602001916116f8565b820191906000526020600020905b8154815290600101906020018083116116db57829003601f168201915b505050505090506117ed565b6000600e805461171390613182565b80601f016020809104026020016040519081016040528092919081815260200182805461173f90613182565b801561178c5780601f106117615761010080835404028352916020019161178c565b820191906000526020600020905b81548152906001019060200180831161176f57829003601f168201915b505050505090506000600e80546117a290613182565b9050116117be57604051806020016040528060008152506117e9565b806117c884612582565b6040516020016117d99291906134a4565b6040516020818303038152906040525b9150505b919050565b6117fa611fa1565b73ffffffffffffffffffffffffffffffffffffffff166118186112d9565b73ffffffffffffffffffffffffffffffffffffffff161461186e576040517f08c379a000000000000000000000000000000000000000000000000000000000815260040161186590613200565b60405180910390fd5b7f000000000000000000000000000000000000000000000000000000000000000081600c60003373ffffffffffffffffffffffffffffffffffffffff1673ffffffffffffffffffffffffffffffffffffffff168152602001908152602001600020546118da9190613502565b111561191b576040517f08c379a0000000000000000000000000000000000000000000000000000000008152600401611912906135a4565b60405180910390fd5b61271081600d5461192c9190613502565b111561196d576040517f08c379a000000000000000000000000000000000000000000000000000000000815260040161196490613610565b60405180910390fd5b61197733826126e3565b80600d60008282546119899190613502565b9250508190555080601260008282546119a29190613502565b9250508190555080600c60003373ffffffffffffffffffffffffffffffffffffffff1673ffffffffffffffffffffffffffffffffffffffff16815260200190815260200160002060008282546119f89190613502565b9250508190555050565b600d5481565b611a10611fa1565b73ffffffffffffffffffffffffffffffffffffffff16611a2e6112d9565b73ffffffffffffffffffffffffffffffffffffffff1614611a84576040517f08c379a0000000000000000000000000000000000000000000000000000000008152600401611a7b90613200565b60405180910390fd5b80601160006101000a81548160ff02191690831515021790555050565b6000600760008473ffffffffffffffffffffffffffffffffffffffff1673ffffffffffffffffffffffffffffffffffffffff16815260200190815260200160002060008373ffffffffffffffffffffffffffffffffffffffff1673ffffffffffffffffffffffffffffffffffffffff16815260200190815260200160002060009054906101000a900460ff16905092915050565b3373ffffffffffffffffffffffffffffffffffffffff163273ffffffffffffffffffffffffffffffffffffffff1614611ba3576040517f08c379a0000000000000000000000000000000000000000000000000000000008152600401611b9a9061367c565b60405180910390fd5b61271081600d54611bb49190613502565b1115611bf5576040517f08c379a0000000000000000000000000000000000000000000000000000000008152600401611bec9061370e565b60405180910390fd5b60011515600f60009054906101000a900460ff16151514611c4b576040517f08c379a0000000000000000000000000000000000000000000000000000000008152600401611c429061377a565b60405180910390fd5b600b5481600c60003373ffffffffffffffffffffffffffffffffffffffff1673ffffffffffffffffffffffffffffffffffffffff16815260200190815260200160002054611c999190613502565b1115611cda576040517f08c379a0000000000000000000000000000000000000000000000000000000008152600401611cd1906137e6565b60405180910390fd5b611ce433826126e3565b80600c60003373ffffffffffffffffffffffffffffffffffffffff1673ffffffffffffffffffffffffffffffffffffffff1681526020019081526020016000206000828254611d339190613502565b9250508190555080600d6000828254611d4c9190613502565b9250508190555050565b611d5e611fa1565b73ffffffffffffffffffffffffffffffffffffffff16611d7c6112d9565b73ffffffffffffffffffffffffffffffffffffffff1614611dd2576040517f08c379a0000000000000000000000000000000000000000000000000000000008152600401611dc990613200565b60405180910390fd5b600073ffffffffffffffffffffffffffffffffffffffff168173ffffffffffffffffffffffffffffffffffffffff161415611e42576040517f08c379a0000000000000000000000000000000000000000000000000000000008152600401611e3990613878565b60405180910390fd5b611e4b8161235c565b50565b600c6020528060005260406000206000915090505481565b60125481565b600081611e77611fa9565b11158015611e86575060005482105b8015611ec4575060007c0100000000000000000000000000000000000000000000000000000000600460008581526020019081526020016000205416145b9050919050565b60008082905080611eda611fa9565b11611f6257600054811015611f615760006004600083815260200190815260200160002054905060007c010000000000000000000000000000000000000000000000000000000082161415611f5f575b6000811415611f55576004600083600190039350838152602001908152602001600020549050611f2a565b8092505050611f94565b505b5b6040517fdf2d9b4200000000000000000000000000000000000000000000000000000000815260040160405180910390fd5b919050565b600033905090565b600033905090565b60006001905090565b6000611fbd82611ecb565b90508373ffffffffffffffffffffffffffffffffffffffff168173ffffffffffffffffffffffffffffffffffffffff1614612024576040517fa114810000000000000000000000000000000000000000000000000000000000815260040160405180910390fd5b60008473ffffffffffffffffffffffffffffffffffffffff16612045611f99565b73ffffffffffffffffffffffffffffffffffffffff16148061207457506120738561206e611f99565b611aa1565b5b806120b95750612082611f99565b73ffffffffffffffffffffffffffffffffffffffff166120a1846109b1565b73ffffffffffffffffffffffffffffffffffffffff16145b9050806120f2576040517f59c896be00000000000000000000000000000000000000000000000000000000815260040160405180910390fd5b600073ffffffffffffffffffffffffffffffffffffffff168473ffffffffffffffffffffffffffffffffffffffff161415612159576040517fea553b3400000000000000000000000000000000000000000000000000000000815260040160405180910390fd5b6121668585856001612701565b6006600084815260200190815260200160002060006101000a81549073ffffffffffffffffffffffffffffffffffffffff0219169055600560008673ffffffffffffffffffffffffffffffffffffffff1673ffffffffffffffffffffffffffffffffffffffff168152602001908152602001600020600081546001900391905081905550600560008573ffffffffffffffffffffffffffffffffffffffff1673ffffffffffffffffffffffffffffffffffffffff16815260200190815260200160002060008154600101919050819055507c020000000000000000000000000000000000000000000000000000000060a042901b61226386612707565b1717600460008581526020019081526020016000208190555060007c0200000000000000000000000000000000000000000000000000000000831614156122ed5760006001840190506000600460008381526020019081526020016000205414156122eb5760005481146122ea578260046000838152602001908152602001600020819055505b5b505b828473ffffffffffffffffffffffffffffffffffffffff168673ffffffffffffffffffffffffffffffffffffffff167fddf252ad1be2c89b69c2b068fc378daa952ba7f163c4a11628f55a4df523b3ef60405160405180910390a46123558585856001612711565b5050505050565b6000600860009054906101000a900473ffffffffffffffffffffffffffffffffffffffff16905081600860006101000a81548173ffffffffffffffffffffffffffffffffffffffff021916908373ffffffffffffffffffffffffffffffffffffffff1602179055508173ffffffffffffffffffffffffffffffffffffffff168173ffffffffffffffffffffffffffffffffffffffff167f8be0079c531659141344cd1fd0a4f28419497f9722a3daafe3b4186f6b6457e060405160405180910390a35050565b60008373ffffffffffffffffffffffffffffffffffffffff1663150b7a02612448611f99565b8786866040518563ffffffff1660e01b815260040161246a94939291906138ed565b602060405180830381600087803b15801561248457600080fd5b505af19250505080156124b557506040513d601f19601f820116820180604052508101906124b2919061394e565b60015b61252f573d80600081146124e5576040519150601f19603f3d011682016040523d82523d6000602084013e6124ea565b606091505b50600081511415612527576040517fd1a57ed600000000000000000000000000000000000000000000000000000000815260040160405180910390fd5b805181602001fd5b63150b7a0260e01b7bffffffffffffffffffffffffffffffffffffffffffffffffffffffff1916817bffffffffffffffffffffffffffffffffffffffffffffffffffffffff191614915050949350505050565b606060008214156125ca576040518060400160405280600181526020017f300000000000000000000000000000000000000000000000000000000000000081525090506126de565b600082905060005b600082146125fc5780806125e59061397b565b915050600a826125f591906139f3565b91506125d2565b60008167ffffffffffffffff81111561261857612617612d38565b5b6040519080825280601f01601f19166020018201604052801561264a5781602001600182028036833780820191505090505b5090505b600085146126d7576001826126639190613a24565b9150600a856126729190613a58565b603061267e9190613502565b60f81b81838151811061269457612693613a89565b5b60200101907effffffffffffffffffffffffffffffffffffffffffffffffffffffffffffff1916908160001a905350600a856126d091906139f3565b945061264e565b8093505050505b919050565b6126fd828260405180602001604052806000815250612717565b5050565b50505050565b6000819050919050565b50505050565b600080549050600073ffffffffffffffffffffffffffffffffffffffff168473ffffffffffffffffffffffffffffffffffffffff161415612784576040517f2e07630000000000000000000000000000000000000000000000000000000000815260040160405180910390fd5b60008314156127bf576040517fb562e8dd00000000000000000000000000000000000000000000000000000000815260040160405180910390fd5b6127cc6000858386612701565b600160406001901b178302600560008673ffffffffffffffffffffffffffffffffffffffff1673ffffffffffffffffffffffffffffffffffffffff1681526020019081526020016000206000828254019250508190555060e1612831600185146129cc565b901b60a042901b61284186612707565b1717600460008381526020019081526020016000208190555060008190506000848201905060008673ffffffffffffffffffffffffffffffffffffffff163b14612945575b818673ffffffffffffffffffffffffffffffffffffffff16600073ffffffffffffffffffffffffffffffffffffffff167fddf252ad1be2c89b69c2b068fc378daa952ba7f163c4a11628f55a4df523b3ef60405160405180910390a46128f56000878480600101955087612422565b61292b576040517fd1a57ed600000000000000000000000000000000000000000000000000000000815260040160405180910390fd5b80821061288657826000541461294057600080fd5b6129b0565b5b818060010192508673ffffffffffffffffffffffffffffffffffffffff16600073ffffffffffffffffffffffffffffffffffffffff167fddf252ad1be2c89b69c2b068fc378daa952ba7f163c4a11628f55a4df523b3ef60405160405180910390a4808210612946575b8160008190555050506129c66000858386612711565b50505050565b6000819050919050565b8280546129e290613182565b90600052602060002090601f016020900481019282612a045760008555612a4b565b82601f10612a1d57805160ff1916838001178555612a4b565b82800160010185558215612a4b579182015b82811115612a4a578251825591602001919060010190612a2f565b5b509050612a589190612a5c565b5090565b5b80821115612a75576000816000905550600101612a5d565b5090565b6000604051905090565b600080fd5b600080fd5b60007fffffffff0000000000000000000000000000000000000000000000000000000082169050919050565b612ac281612a8d565b8114612acd57600080fd5b50565b600081359050612adf81612ab9565b92915050565b600060208284031215612afb57612afa612a83565b5b6000612b0984828501612ad0565b91505092915050565b60008115159050919050565b612b2781612b12565b82525050565b6000602082019050612b426000830184612b1e565b92915050565b600081519050919050565b600082825260208201905092915050565b60005b83811015612b82578082015181840152602081019050612b67565b83811115612b91576000848401525b50505050565b6000601f19601f8301169050919050565b6000612bb382612b48565b612bbd8185612b53565b9350612bcd818560208601612b64565b612bd681612b97565b840191505092915050565b60006020820190508181036000830152612bfb8184612ba8565b905092915050565b6000819050919050565b612c1681612c03565b8114612c2157600080fd5b50565b600081359050612c3381612c0d565b92915050565b600060208284031215612c4f57612c4e612a83565b5b6000612c5d84828501612c24565b91505092915050565b600073ffffffffffffffffffffffffffffffffffffffff82169050919050565b6000612c9182612c66565b9050919050565b612ca181612c86565b82525050565b6000602082019050612cbc6000830184612c98565b92915050565b612ccb81612c86565b8114612cd657600080fd5b50565b600081359050612ce881612cc2565b92915050565b60008060408385031215612d0557612d04612a83565b5b6000612d1385828601612cd9565b9250506020612d2485828601612c24565b9150509250929050565b600080fd5b600080fd5b7f4e487b7100000000000000000000000000000000000000000000000000000000600052604160045260246000fd5b612d7082612b97565b810181811067ffffffffffffffff82111715612d8f57612d8e612d38565b5b80604052505050565b6000612da2612a79565b9050612dae8282612d67565b919050565b600067ffffffffffffffff821115612dce57612dcd612d38565b5b612dd782612b97565b9050602081019050919050565b82818337600083830152505050565b6000612e06612e0184612db3565b612d98565b905082815260208101848484011115612e2257612e21612d33565b5b612e2d848285612de4565b509392505050565b600082601f830112612e4a57612e49612d2e565b5b8135612e5a848260208601612df3565b91505092915050565b600060208284031215612e7957612e78612a83565b5b600082013567ffffffffffffffff811115612e9757612e96612a88565b5b612ea384828501612e35565b91505092915050565b612eb581612c03565b82525050565b6000602082019050612ed06000830184612eac565b92915050565b600080600060608486031215612eef57612eee612a83565b5b6000612efd86828701612cd9565b9350506020612f0e86828701612cd9565b9250506040612f1f86828701612c24565b9150509250925092565b612f3281612b12565b8114612f3d57600080fd5b50565b600081359050612f4f81612f29565b92915050565b600060208284031215612f6b57612f6a612a83565b5b6000612f7984828501612f40565b91505092915050565b600060208284031215612f9857612f97612a83565b5b6000612fa684828501612cd9565b91505092915050565b60008060408385031215612fc657612fc5612a83565b5b6000612fd485828601612cd9565b9250506020612fe585828601612f40565b9150509250929050565b600067ffffffffffffffff82111561300a57613009612d38565b5b61301382612b97565b9050602081019050919050565b600061303361302e84612fef565b612d98565b90508281526020810184848401111561304f5761304e612d33565b5b61305a848285612de4565b509392505050565b600082601f83011261307757613076612d2e565b5b8135613087848260208601613020565b91505092915050565b600080600080608085870312156130aa576130a9612a83565b5b60006130b887828801612cd9565b94505060206130c987828801612cd9565b93505060406130da87828801612c24565b925050606085013567ffffffffffffffff8111156130fb576130fa612a88565b5b61310787828801613062565b91505092959194509250565b6000806040838503121561312a57613129612a83565b5b600061313885828601612cd9565b925050602061314985828601612cd9565b9150509250929050565b7f4e487b7100000000000000000000000000000000000000000000000000000000600052602260045260246000fd5b6000600282049050600182168061319a57607f821691505b602082108114156131ae576131ad613153565b5b50919050565b7f4f776e61626c653a2063616c6c6572206973206e6f7420746865206f776e6572600082015250565b60006131ea602083612b53565b91506131f5826131b4565b602082019050919050565b60006020820190508181036000830152613219816131dd565b9050919050565b7f50726f76656e616e63652063616e206e6f74206265206368616e67656420616660008201527f746572207468652073616c652068617320737461727465642e00000000000000602082015250565b600061327c603983612b53565b915061328782613220565b604082019050919050565b600060208201905081810360008301526132ab8161326f565b9050919050565b7f506c616365686f6c646572205552492063616e6e6f7420626520656d7074792e600082015250565b60006132e8602083612b53565b91506132f3826132b2565b602082019050919050565b60006020820190508181036000830152613317816132db565b9050919050565b7f626173655552492063616e6e6f7420626520656d7074792e0000000000000000600082015250565b6000613354601883612b53565b915061335f8261331e565b602082019050919050565b6000602082019050818103600083015261338381613347565b9050919050565b7f4552433732314d657461646174613a2055524920717565727920666f72206e6f60008201527f6e6578697374656e7420746f6b656e0000000000000000000000000000000000602082015250565b60006133e6602f83612b53565b91506133f18261338a565b604082019050919050565b60006020820190508181036000830152613415816133d9565b9050919050565b600081905092915050565b600061343282612b48565b61343c818561341c565b935061344c818560208601612b64565b80840191505092915050565b7f2e6a736f6e000000000000000000000000000000000000000000000000000000600082015250565b600061348e60058361341c565b915061349982613458565b600582019050919050565b60006134b08285613427565b91506134bc8284613427565b91506134c782613481565b91508190509392505050565b7f4e487b7100000000000000000000000000000000000000000000000000000000600052601160045260246000fd5b600061350d82612c03565b915061351883612c03565b9250827fffffffffffffffffffffffffffffffffffffffffffffffffffffffffffffffff0382111561354d5761354c6134d3565b5b828201905092915050565b7f7265736572766520737570706c7920776f756c64206578636565640000000000600082015250565b600061358e601b83612b53565b915061359982613558565b602082019050919050565b600060208201905081810360008301526135bd81613581565b9050919050565b7f457863656564696e6720746865204d617820537570706c790000000000000000600082015250565b60006135fa601883612b53565b9150613605826135c4565b602082019050919050565b60006020820190508181036000830152613629816135ed565b9050919050565b7f5468652063616c6c657220697320616e6f7468657220636f6e74726163740000600082015250565b6000613666601e83612b53565b915061367182613630565b602082019050919050565b6000602082019050818103600083015261369581613659565b9050919050565b7f596f752063616e2774206d696e74206d6f7265207468616e206d6178696d756d60008201527f20737570706c7900000000000000000000000000000000000000000000000000602082015250565b60006136f8602783612b53565b91506137038261369c565b604082019050919050565b60006020820190508181036000830152613727816136eb565b9050919050565b7f7075626c69632073616c65206e6f742079657420737461727465640000000000600082015250565b6000613764601b83612b53565b915061376f8261372e565b602082019050919050565b6000602082019050818103600083015261379381613757565b9050919050565b7f4d696e7420657863656564696e672074686520616c6c6f776564206c696d6974600082015250565b60006137d0602083612b53565b91506137db8261379a565b602082019050919050565b600060208201905081810360008301526137ff816137c3565b9050919050565b7f4f776e61626c653a206e6577206f776e657220697320746865207a65726f206160008201527f6464726573730000000000000000000000000000000000000000000000000000602082015250565b6000613862602683612b53565b915061386d82613806565b604082019050919050565b6000602082019050818103600083015261389181613855565b9050919050565b600081519050919050565b600082825260208201905092915050565b60006138bf82613898565b6138c981856138a3565b93506138d9818560208601612b64565b6138e281612b97565b840191505092915050565b60006080820190506139026000830187612c98565b61390f6020830186612c98565b61391c6040830185612eac565b818103606083015261392e81846138b4565b905095945050505050565b60008151905061394881612ab9565b92915050565b60006020828403121561396457613963612a83565b5b600061397284828501613939565b91505092915050565b600061398682612c03565b91507fffffffffffffffffffffffffffffffffffffffffffffffffffffffffffffffff8214156139b9576139b86134d3565b5b600182019050919050565b7f4e487b7100000000000000000000000000000000000000000000000000000000600052601260045260246000fd5b60006139fe82612c03565b9150613a0983612c03565b925082613a1957613a186139c4565b5b828204905092915050565b6000613a2f82612c03565b9150613a3a83612c03565b925082821015613a4d57613a4c6134d3565b5b828203905092915050565b6000613a6382612c03565b9150613a6e83612c03565b925082613a7e57613a7d6139c4565b5b828206905092915050565b7f4e487b7100000000000000000000000000000000000000000000000000000000600052603260045260246000fdfea2646970667358221220f5716cc7072fbabd67e31b9d2bb361d69c3d266fa9ddb6a799480b724daf8ccb64736f6c63430008080033",
  "linkReferences": {},
  "deployedLinkReferences": {}
}